:0CF8000000000000FFFF0000FFFF000000
:10F80C00314000033C4006020D433E401200B01252
:10F81C00B4FB3C4000023D4000FC0D9C04243E40E7
:10F82C000600B0127CFBB012E4FB0C43B012D4F90E
:10F83C00344000F8354000F82643304068F8344036
:10F84C0000F8354000F82643304068F8344000F8A2
:10F85C00354000F83640FEFF304068F8059405242A
:10F86C0027440456A7121040F4FF30413041304178
:10F87C003C4000FC3C9000FC07243D4000000D93F4
:10F88C0003243C4000FC8D1230410A123A4000FC2B
:10F89C003A8000FC0A110C4AB012C8FA0C5A0D4CF2
:10F8AC000D110D9307243E4000000E9303243C40A1
:10F8BC0000FC8E123A4130410A120912C293060220
:10F8CC0017203A400AF83A8008F80A113A5339409E
:10F8DC0008F81C4208020C9A0D28B0127CF83D4026
:10F8EC0000000D9303243C4000F88D12D243060215
:10F8FC003040C2FA1C53824C08020C5C0C592C4C44
:10F90C008C123040DEF83E4000000E9305243D4042
:10F91C000A023C4000F88E12B01296F83041B24008
:10F92C00805A20013041C2435600D242FF1057008A
:10F93C00D242FE105600F24006002600F2400600AD
:10F94C004100F2D080FF6100F24068006200C243C7
:10F95C006300E2436400D2C36100D2D301003041A2
:10F96C00E2D32A00F2D010002A00F2D0400022008C
:10F97C00E2D32E00F2D010002E00F2D04000260070
:10F98C003041B2D000026001B2D010006001B24030
:10F99C000001720192437401B2D0E0006401304165
:10F9AC00B2D000028001B2D010008001B240FF0042
:10F9BC0092019243940192439601B2D0E0008401EB
:10F9CC00B2D0E00086013041B240805A2001B01222
:10F9DC0032F9B0126CF9B2D000026001B2D0100052
:10F9EC006001B2400001720192437401B2D0E00098
:10F9FC006401B2D000028001B2D010008001B2408C
:10FA0C00FF0092019243940192439601B2D0E00020
:10FA1C008401B2D0E000860132D20343034330406C
:10FA2C0026FA0E120D120C12E2B30300FD275D42F2
:10FA3C0066001C4204021C9335245E430E9C273442
:10FA4C002C9317243C9003002820824D74011C42F7
:10FA5C0002027C50FDFFC24C67001D4204021C4296
:10FA6C0002020D9C0E38824304023C413D413E4152
:10FA7C000013824D96011D4204021C4202020D9C91
:10FA8C00F237925304023C413D413E4100130C932A
:10FA9C000420824D0202304066FAD24266006700B2
:10FAAC00304066FA824D9401304066FA344135415B
:10FABC0036413741384139413A41304112C30C107B
:10FACC0012C30C1012C30C1012C30C1012C30C1066
:10FADC0012C30C1012C30C1012C30C1012C30C1056
:10FAEC0012C30C1012C30C1012C30C1012C30C1046
:10FAFC0012C30C1012C30C1030413D5312C30C1026
:10FB0C000D93FB23304112C30D100C1012C30D10BA
:10FB1C000C1012C30D100C1012C30D100C1012C3CC
:10FB2C000D100C1012C30D100C1012C30D100C1074
:10FB3C0012C30D100C1012C30D100C1012C30D10AB
:10FB4C000C1012C30D100C1012C30D100C1012C39C
:10FB5C000D100C1012C30D100C1012C30D100C1044
:10FB6C0030413E5312C30D100C100E93FA2330414A
:10FB7C000D9C0A280F4C0E5C0E9F0D24EF4D0000BF
:10FB8C001F531D53304084FB0F4D0F5E0C9FF22F03
:10FB9C003E533E93012030410B4C0B5E0F4D0F5EDC
:10FBAC00EB4F000030409CFB0F4C0E5C0F9E012075
:10FBBC003041CF4D00001F533040B8FB30410A128A
:10FBCC003A4004F82C4A3C9302203A4130418C12C2
:10FBDC003A50FEFF3040D0FBB01212F9B012CAFB03
:10FBEC00B0124AF8B0123CF83041B01258F8B012CA
:04FBFC00C4F83041D8
:06FC0000000000000000FE
:02FFEE002EFAE9
:02FFFE000CF8FD
:040000030000F80CF5
:00000001FF
